:020000040800F2
:100000000020002089160008CF160008D516000829
:1000100000000000000000000000000000000000E0
:10002000000000000000000000000000DB160008D7
:100030000000000000000000E1160008AD170008F5
:10004000E716000800000000ED160008F31600088F
:10005000F9160008FF160008051700080B1700081E
:100060000000000011170008171700081D170008EE
:1000700023170008291700082F17000800000000A8
:10008000351700083B170008000000008117000822
:100090004117000899170008471700084D17000876
:1000A00053170008591700085F1700086517000864
:1000B0006B170008000000000000000000000000B6
:1000C00010B5064C2378002B07D1054B002B02D02E
:1000D000044800E000BF0123237010BD0C00002085
:1000E000000000000C180008044B10B5002B03D0D2
:1000F0000349044800E000BF10BDC04600000000F6
:10010000100000200C180008002243088B4274D312
:1001100003098B425FD3030A8B4244D3030B8B4208
:1001200028D3030C8B420DD3FF22090212BA030C11
:100130008B4202D31212090265D0030B8B4219D3F2
:1001400000E0090AC30B8B4201D3CB03C01A524112
:10015000830B8B4201D38B03C01A5241430B8B425A
:1001600001D34B03C01A5241030B8B4201D30B0343
:10017000C01A5241C30A8B4201D3CB02C01A52416A
:10018000830A8B4201D38B02C01A5241430A8B422D
:1001900001D34B02C01A5241030A8B4201D30B0216
:1001A000C01A5241CDD2C3098B4201D3CB01C01A30
:1001B000524183098B4201D38B01C01A524143093A
:1001C0008B4201D34B01C01A524103098B4201D328
:1001D0000B01C01A5241C3088B4201D3CB00C01A95
:1001E000524183088B4201D38B00C01A524143080D
:1001F0008B4201D34B00C01A5241411A00D2014632
:10020000524110467047FFE701B5002000F006F8A4
:1002100002BDC0460029F7D076E770477047C04658
:10022000F0B5D6464F464646C0B588B014220021E8
:1002300003A801F0E3FA2F4B596980200003014322
:1002400059615A6902400092009A596980208002DF
:10025000014359615A6902400192019A5A69802109
:10026000C9020A435A615B690B400293029B224C0C
:10027000224E00222100300001F0A5F9204B9A46C1
:100280009023DB05994600225146180001F09BF9A6
:100290001C4B98461C4F00221900380001F093F9BE
:1002A00003940125049500240594069403A93000C5
:1002B00001F0BCF80F2303930494059403A93000C4
:1002C00001F0B4F85346039304950594069403A9EA
:1002D000484601F0ABF84346039304950594069411
:1002E00003A9380001F0A2F808B0E0BCBA46B14654
:1002F000A846F0BD00100240F03F00000008004892
:100300007C860000FFFF00000004004872B6FEE794
:1003100010B50948094B03602F2343600023836015
:100320006422C2600361836100F0DAFC002800D11E
:1003300010BDFFF7EBFFC046280000200020004062
:1003400010B50948094B03602F23436000238360E5
:10035000074AC26003614361836100F0C1FC002869
:1003600000D110BDFFF7D2FFDC00002000440140A7
:100370001027000000B591B03022002104A801F040
:100380003DFA10220021684601F038FA0223049356
:10039000012207920F3208920C93A0239B030E9325
:1003A00004A800F0D9FC00280ED107230093053BD8
:1003B00001930023029303930121684600F052FF4A
:1003C000002803D111B000BDFFF7A0FFFFF79EFF8B
:1003D00010B501F009F8FFF7CDFFFFF721FFFFF798
:1003E00097FFFFF7ADFF054800F000FB044800F061
:1003F000FDFA00F075F800F0EDF8FCE728000020A9
:10040000DC00002010B50400074B02689A4204D0BB
:100410002268064B9A4203D010BD00F027F9F7E797
:1004200000F060F8F8E7C0460044014000200040BA
:1004300082B00A4B996901221143996199690A4076
:100440000092009ADA69802149050A43DA61DB6982
:100450000B400193019B02B07047C0460010024060
:1004600000B583B00368174A934204D0164A9342FA
:1004700014D003B000BD154AD1698020400001436B
:10048000D161D36903400093009B00220221ED3823
:1004900001F0A0F8132001F0CDF8EAE70B4A9169CA
:1004A0008020800201439161936903400193019B85
:1004B00000220121152001F08DF8152001F0BAF875
:1004C000D7E7C04600200040004401400010024031
:1004D0007047704710B500F0E5F800F0DBF910BD8B
:1004E00070470000024A1368013313607047C0462A
:1004F00090010020014B18687047C0469001002011
:1005000010B50400FFF7F6FF022C07D0032C08D02B
:10051000012C00D010BD044B1861FBE7024B986121
:10052000F8E7014B1862F5E79001002010B50400D0
:10053000FFF7E0FF022C0FD0032C10D0012C08D0C5
:100540000023C31A022C11D0032C13D0012C09D084
:1005500010BD0A4B1B69F4E7084B9B69F1E7074B99
:100560001B6AEEE7054A53635061F1E7034A936360
:10057000D061EDE7014AD3635062E9E790010020C2
:1005800010B50400FFF7B6FF022C0FD0032C10D0DB
:10059000012C08D00023C31A022C11D0032C13D035
:1005A000012C09D010BD0A4B9B6AF4E7084BDB6AAB
:1005B000F1E7074B1B6BEEE7054A13649062F1E726
:1005C000034A5364D062EDE7014A93641063E9E79C
:1005D0009001002010B50F4A5623D35C012B09D09F
:1005E0000420FFF78DFF0420FFF7A0FF0420FFF792
:1005F000C7FF10BD1300084A1A66562200219954FD
:100600000320FFF77DFF0320FFF790FF0320FFF794
:10061000B7FFEEE790010020D304000810B5114B9E
:100620005A68501C58605422012199546331FFF7D5
:10063000F1FD002906D10B4BDA680132DA6056224F
:1006400001319954074B084A9A6554220021995464
:100650000120FFF755FF0120FFF768FF0120FFF79A
:100660008FFF10BD90010020D104000810B50B4B86
:100670009A6801329A605522012199540849D96536
:10068000002199540220FFF73BFFFFF723FF0220D0
:10069000FFF74CFF0220FFF773FF10BD9001002011
:1006A000D504000870B5754B1B78022B5ED00FD8AF
:1006B000002B1BD0012B24D1714C002220212000C3
:1006C00000F081FF0122D021200000F07CFF18E023
:1006D000032B16D16A4C00228021200000F073FF0A
:1006E00001227021200000F06EFF0AE0644C00221D
:1006F0001021200000F067FF0122E021200000F01F
:1007000062FF5F4D0121280000F056FF44B2022134
:10071000280000F051FF4000044364B20421280087
:1007200000F04AFF8000044364B20821280000F072
:1007300043FFC0000443E4B2524B1C70002C03D0B2
:10074000514A1368013313604C4B1B78002B25D1A1
:10075000002C23D0072C15D00B2C17D00D2C19D022
:100760000E2C21D1494A232111701DE0444C002256
:100770004021200000F027FF0122B021200000F0DE
:1007800022FFBEE7414A2A2111700DE03F4A302185
:10079000117009E03D4A4421117005E0012B12D08F
:1007A000022B2AD0032B42D00133DBB2334A137021
:1007B000032B02D9130000221A700F2C51D0344B96
:1007C00000221A6070BD002CEAD0072C09D00B2C37
:1007D0000BD00D2C0DD00E2CE6D12C4A42211170DD
:1007E000E2E72A4A34211170DEE7284A35211170E8
:1007F000DAE7264A36211170D6E7002CD2D0072C32
:1008000009D00B2C0BD00D2C0DD00E2CCCD11F4AA7
:1008100043211170C8E71D4A37211170C4E71B4AF4
:1008200038211170C0E7194A39211170BCE7002C3A
:10083000BAD0072C09D00B2C0BD00D2C0DD00E2CC0
:10084000B2D1124A33211170AEE7104A3121117032
:10085000AAE70E4A32211170A6E70C4A4121117015
:10086000A2E70B4A136801331360322BAAD9074B56
:1008700020221A70064B00221A60A3E7F401002020
:100880000008004800020020FC01002000000020B9
:10089000F8010020F8B54D4A138801339BB213804C
:1008A0000A2B4CD880273F02902000223900C00537
:1008B00000F089FE8026F600454C00223100200021
:1008C00000F081FE80252D0100222900200000F08B
:1008D0007AFE80210022C901200000F074FE00226F
:1008E0003900200000F06FFE80213A4C00224900C0
:1008F000200000F068FE802100228900200000F026
:1009000062FE00223100200000F05DFE002229007E
:10091000200000F058FE802100224901200000F054
:1009200052FE802100228901200000F04CFE274B5E
:100930001B88142B02D9254B00221A80F8BD802772
:100940003F02902001223900C00500F03CFE8026C5
:10095000F6001F4C01223100200000F034FE8025FB
:100960002D0101222900200000F02DFE802101220E
:10097000C901200000F027FE01223900200000F00C
:1009800022FE8021134C01224900200000F01BFEB2
:10099000802101228900200000F015FE0122310093
:1009A000200000F010FE01222900200000F00BFEC4
:1009B000802101224901200000F005FE8021012252
:1009C0008901200000F0FFFDB1E7C04602020020CF
:1009D000000400480008004870477047704770479F
:1009E0007047704770477047704700003D23C35CF5
:1009F000012B22D13C330222C2540268D368012168
:100A00000B43D36003680F4A93420BD00E4A9342C4
:100A100008D00E4A934205D01A6801210A431A6091
:100A200000200BE0996807220A40062A07D01A68BE
:100A300001210A431A60002000E0012070470020D5
:100A4000FCE7C046002C014000040040004001408B
:100A500010B5040003681A69920711D5DA68920785
:100A60000ED5032252421A610123037703689B6962
:100A70009B0700D184E09023C35898470023237735
:100A800023681A69520714D5DA68520711D505226E
:100A900052421A610223237723689A69C0239B007C
:100AA0001A4200D174E09023E358200098470023B5
:100AB000237723681A69120711D5DA6812070ED551
:100AC000092252421A61042323772368DB699B07BA
:100AD00067D09023E35820009847002323772368AA
:100AE0001A69D20613D5DA68D20610D511225242FD
:100AF0001A61082323772368DA69C0239B001A420E
:100B000058D09023E3582000984700232377236888
:100B10001A69D20709D5DA68D20706D502225242ED
:100B20001A618023E3582000984723681A69120647
:100B300009D5DA68120606D5812252421A61B0231D
:100B4000E3582000984723681A69520609D5DA68E5
:100B5000520606D5412252421A618823E3582000EA
:100B6000984723681A69920609D5DA68920606D56D
:100B7000212252421A61A823E3582000984710BD51
:100B80009823C35898479C23E3582000984775E75B
:100B90009823E358200098479C23E3582000984767
:100BA00085E79823E358200098479C23E3582000CA
:100BB000984792E79823E358200098479C23E358EE
:100BC00020009847A1E7000003681D4A904202D028
:100BD0001C4A904203D1702293434A681343184A37
:100BE00090420ED0174A90420BD0174A904208D03C
:100BF000164A904205D0164A904202D0154A9042B9
:100C000003D1154A1340CA681343802293434A69AB
:100C1000134303608B68C3620B688362084B98427E
:100C200008D00A4B984205D0094B984202D0094B94
:100C3000984201D10B690363012343617047C046A9
:100C4000002C014000040040002000400040014012
:100C50000044014000480140FFFCFFFF8023134A8D
:100C6000C2500433124AC2500433124AC2500433F1
:100C7000114AC2500433114AC2500433104AC250C0
:100C80000433104AC25004330F4AC25004330F4A8F
:100C9000C25004330E4AC25004330E4AC2500433C9
:100CA0000D4AC25004330D4AC25070470504000873
:100CB000D9090008E5090008E7090008DD0900086E
:100CC000DF090008DB090008E1090008E309000862
:100CD000E9090008510D0008530D0008550D0008E2
:100CE00070B5041E2FD03D23C35C002B1CD03D25C6
:100CF00002236355210001C9FFF766FF0123462245
:100D0000A354083AA3540132A3540132A35401322C
:100D1000A3540132A3540132A3540132A35401322B
:100D2000A3546355002070BD3C330022C254FFF72A
:100D300095FFA36C002B03D02000A36C9847D6E747
:100D4000024BA364F8E70120EDE7C0466104000808
:100D5000704770477047000070B582B0041E00D124
:100D60002EE20368DB0726D5AE4B5A680C231340EE
:100D7000042B18D0AB4B5A680C231340082B0ED011
:100D80006368012B3CD0002B51D1A64B1A68A649B1
:100D90000A401A601A68A5490A401A6036E0A14B59
:100DA0005B68DB03ECD59F4B1B689B0303D5636833
:100DB000002B00D107E223689B0772D5994B5B6833
:100DC0000C221A425DD0974B5A680C231340082B13
:100DD00053D0E368002B00D185E0924A13680121CB
:100DE0000B43136000F01CFB05008E4B1B689B0738
:100DF00070D400F015FB401B0228F6D90320E0E177
:100E0000884A116880235B020B4313606368002BE0
:100E100025D000F005FB0500824B1B689B03CAD45C
:100E200000F0FEFA401B6428F6D90320C9E1052B27
:100E300009D07C4B1A687C490A401A601A687B49C1
:100E40000A401A60E2E7774B19688022D2020A430F
:100E50001A601968802252020A431A60D6E700F02D
:100E6000DFFA05006F4B1B689B03A4D500F0D8FA8E
:100E7000401B6428F6D90320A3E16A4B5B68DB03BF
:100E8000A7D4684B1B689B0703D5E368012B00D0F0
:100E90009BE164490B68F82293432269D200134313
:100EA0000B6023681B0744D5E369002B2ED05D4AF5
:100EB000536A01210B43536200F0B2FA0500594B0B
:100EC0005B6A9B0735D400F0ABFA401B0228F6D9C9
:100ED000032076E153490B68F82293432269D2003C
:100EE00013430B60DDE74F4A136801218B43136006
:100EF00000F096FA05004B4B1B689B07D1D500F01C
:100F00008FFA401B0228F6D903205AE1454A536A5A
:100F100001218B43536200F083FA0500414B5B6A69
:100F20009B0706D500F07CFA401B0228F6D9032067
:100F300047E123685B0700D480E03A4BDB69DB00C4
:100F40001DD4384AD169802040050143D161D3695D
:100F500003400193019B0125354B1B68DB0510D530
:100F6000A368012B21D0002B36D12E4B1A6A012108
:100F70008A431A621A6A03318A431A621AE0002508
:100F8000EAE72B4A116880235B000B43136000F0F3
:100F900047FA0600264B1B68DB05E1D400F040FA57
:100FA000801B6428F6D903200BE11E4A136A012135
:100FB0000B431362A368002B24D000F031FA060023
:100FC000184B1B6A9B0737D400F02AFA801B194B79
:100FD0009842F5D90320F4E0052B09D0114B1A6A89
:100FE00001218A431A621A6A03318A431A62E1E7CD
:100FF0000C4B1A6A04210A431A621A6A03390A431B
:101000001A62D7E700F00CFA0600064B1B6A9B0732
:1010100012D500F005FA801B064B9842F5D9032043
:10102000CFE0C04600100240FFFFFEFFFFFFFBFFC6
:101030000070004088130000012D33D02368DB06C8
:1010400010D56369012B33D0053351D1654A536BF9
:1010500004218B435363536BF4318B43A169C90063
:101060000B435363236A002B00D1B0E05D4A516803
:101070000C220A40082A00D18AE0022B4FD0594A9C
:10108000136859490B40136000F0CAF90400554B2E
:101090001B689B017AD500F0C3F9001B0228F6D922
:1010A00003208EE04F4AD36950490B40D361C5E716
:1010B0004C4B5A6B04210A435A635A6B03390A4357
:1010C0005A6300F0ADF90500464B5B6B9B0706D4F5
:1010D00000F0A6F9401B0228F6D9032071E041492F
:1010E0004B6BF8229343A269D20013434B63B9E7D9
:1010F0003C4B5A6B04210A435A635A6B03398A43A7
:101100005A6300F08DF90500364B5B6B9B07A9D540
:1011100000F086F9401B0228F6D9032051E0314A3D
:10112000136831490B40136000F07AF905002D4B2C
:101130001B689B0106D500F073F9401B0228F6D905
:1011400003203EE0274BDA6A0F218A43E16A0A4313
:10115000DA625A6826490A40A16A606A01430A4372
:101160005A601968802252040A431A6000F058F944
:1011700004001C4B1B689B0106D400F051F9001BB6
:101180000228F6D903201CE000201AE0002018E015
:10119000012B1ED0134B5A68D96A80235B0213407F
:1011A000606A834217D10F230B40E16A8B4214D14E
:1011B000F0239B031A40A36A9A4210D1002000E05A
:1011C000012002B070BD0120FBE70120F9E70020FB
:1011D000F7E70120F5E70120F3E70120F1E701201F
:1011E000EFE7C04600100240FFFFFFFEFFFFFFEFEA
:1011F000FFFFC2FF10B588B004AA164B13CB13C271
:101200001B6813606A46144B13CB13C21B68136030
:10121000124B5A680C231340082B02D0104808B018
:1012200010BD910C0733194004A8445C0B49C96AEE
:101230000B406946C95CD30304D50948FEF764FF37
:101240006043ECE763011B1B9801C01AC000001942
:101250000002E4E7241800083818000800100240D3
:1012600000127A0070B504000D00002800D17EE065
:10127000434B1A68012313408B420AD240490B6842
:10128000012293432B430B600B681A40AA4200D003
:101290006FE023689A070ED55B0705D5394A516878
:1012A000E023DB000B435360364A5368F0218B4345
:1012B000A1680B4353602368DB072DD56368012BBE
:1012C0001ED0022B22D02F4A1268920753D52D49E7
:1012D0004A680320824313434B6000F0A1F80600E4
:1012E000284B5B680C221A4063689B009A4213D01B
:1012F00000F096F8801B244B9842F1D9032035E08A
:10130000204A12689203E2D401202FE01D4A12689D
:101310009201DCD4012029E0194B1A680123134003
:10132000AB4209D916490B68012293432B430B604A
:101330000B681A40AA4220D123685B0706D5114AE0
:10134000536812490B40E1680B435360FFF752FFAB
:101350000C4B5A6812090F2313400D4AD35CD84036
:101360000C4B1860032000F017F8002070BD01201E
:10137000FCE70120FAE70120F8E70120F6E7C04684
:10138000002002400010024088130000FFF8FFFF19
:101390004C1800080800002010B504000F4B197805
:1013A000FA208000FEF7B0FE01000D4B1868FEF732
:1013B000ABFE00F04BF900280DD1032C01D9012020
:1013C0000AE0013000222100404200F003F9054B01
:1013D0001C60002000E0012010BDC046010000207C
:1013E000080000200400002010B5064A13681021F0
:1013F0000B4313600320FFF7CFFFFFF719F800201E
:1014000010BDC04600200240034A1168034B1B7800
:101410005B1813607047C0460402002001000020E2
:10142000014B18687047C04604020020F0B583B035
:10143000002357E084685F000326BE40B4432600C3
:10144000CC68BC4034438460446894434A681609BD
:10145000012232409A402243426053E0DC080834C3
:10146000A400265805321A4092000F279740BE4329
:101470000F6997403A003243225057E0032600E0BC
:101480000026A64034003C4302329200444E945160
:10149000444A1468EA432600AE434F68FF0301D56F
:1014A0002C4326003F4C26606468260016404F6897
:1014B000BF0301D52C4326003A4C6660A468260081
:1014C00016404F68FF0201D52C432600354CA6601C
:1014D000E46822404E68B60201D52A002243314C0E
:1014E000E26001330C682200DA4057D001229A40B2
:1014F000250015401442F4D003244E683440013CCA
:10150000012C97D903224C682240032A09D0C268D3
:101510005E000324B440A24314008A68B240224310
:10152000C26003224C682240022A97D004685E0001
:1015300003221700B740BC434F683A40B2402243F1
:101540000260C02292024C681442CAD0164CA669AE
:1015500001221643A661A46922400192019A9A08C9
:10156000941CA4000E4EA75903241C40A4000F266F
:10157000A640B7439026F605B04281D00B4EB0424C
:1015800008D00B4EB04207D00A4EB04200D175E7EA
:10159000052676E7012674E7022672E703B0F0BD60
:1015A0000000014000040140001002400004004817
:1015B00000080048000C004803690B4201D00120DC
:1015C00070470020FCE7002A01D0816170478162EA
:1015D000FCE7000070B5002811DB8308134EC03310
:1015E0009B009D5903242040C000FF22140084402A
:1015F000A54389010A4082402A439A5170BD0F23B6
:101600000340083B9B0806339B00094A9446634409
:101610005C6803221040C000FC3215008540AC43DA
:1016200089010A40824022435A60E7E700E100E076
:1016300000ED00E0002805DB1F2318401E3B83401F
:10164000014A13607047C04600E100E00138802382
:101650005B0498420FD2094A50600948036A1B0292
:101660001B0AC02109060B43036200239360073362
:101670001360002070470120FCE7C04610E000E046
:1016800000ED00E07047000010B50B4B0B4A01E085
:1016900002CA02C30A498B42FAD30A4B01E0002274
:1016A00004C3094A9342FAD3FFF7ECFF00F082F833
:1016B000FEF78EFEFEE7C04600000020641800081A
:1016C0000C0000200C00002008020020FEE710B5EE
:1016D000FFF7FCFF10B5FFF7F9FF10B5FFF7F6FFB6
:1016E00010B5FFF7F3FF10B5FFF7F0FF10B5FFF7E8
:1016F000EDFF10B5FFF7EAFF10B5FFF7E7FF10B5F4
:10170000FFF7E4FF10B5FFF7E1FF10B5FFF7DEFFCD
:1017100010B5FFF7DBFF10B5FFF7D8FF10B5FFF7E7
:10172000D5FF10B5FFF7D2FF10B5FFF7CFFF10B50B
:10173000FFF7CCFF10B5FFF7C9FF10B5FFF7C6FFE5
:1017400010B5FFF7C3FF10B5FFF7C0FF10B5FFF7E7
:10175000BDFF10B5FFF7BAFF10B5FFF7B7FF10B523
:10176000FFF7B4FF10B5FFF7B1FF10B5FFF7AEFFFD
:1017700010B50248FFF76CF910BDC04628000020E4
:1017800010B5FFF7F5FF10BD10B50248FFF760F97F
:1017900010BDC046DC00002010B5FFF7F5FF10BDFE
:1017A00010B5FFF731FEFEF739FF10BD10B5FFF79A
:1017B000F7FF10BD70B500260C4D0D4C641BA41036
:1017C000A64209D1002600F021F80A4D0A4C641BFC
:1017D000A410A64205D170BDB300EB58984701365E
:1017E000EEE7B300EB5898470136F2E75C180008C3
:1017F0005C1800085C1800086018000803008218D4
:10180000934200D1704719700133F9E7F8B5C0462B
:10181000F8BC08BC9E467047F8B5C046F8BC08BC8A
:041820009E46704729
:1018240002030405060708090A0B0C0D0E0F10101D
:10183400000000000102030405060708090A0B0C56
:101844000D0E0F100000000000000000000000005A
:08185400010203040607080964
:04185C00E900000897
:04186000C1000008BB
:0C186400200100000400000000127A00C7
:040000050800168950
:00000001FF
