:020000040800F2
:1000000000200020BD2100086B2200087922000892
:1000100000000000000000000000000000000000E0
:10002000000000000000000000000000872200081F
:10003000000000000000000095220008A322000834
:10004000B122000800000000BF220008CD220008F5
:10005000DB220008E9220008F72200080523000837
:100060000000000013230008212300082F230008AC
:100070003D2300084B23000859230008000000001E
:100080006723000875230008000000008323000890
:10009000912300089F230008AD230008BB2300081C
:1000A000C9230008D7230008E5230008F32300082C
:1000B0000124000800000000000000000000000013
:1000C000002243088B4274D303098B425FD3030A97
:1000D0008B4244D3030B8B4228D3030C8B420DD3AA
:1000E000FF22090212BA030C8B4202D31212090238
:1000F00065D0030B8B4219D300E0090AC30B8B4276
:1001000001D3CB03C01A5241830B8B4201D38B0323
:10011000C01A5241430B8B4201D34B03C01A5241C8
:10012000030B8B4201D30B03C01A5241C30A8B420B
:1001300001D3CB02C01A5241830A8B4201D38B02F6
:10014000C01A5241430A8B4201D34B02C01A52419A
:10015000030A8B4201D30B02C01A5241CDD2C3090C
:100160008B4201D3CB01C01A524183098B4201D388
:100170008B01C01A524143098B4201D34B01C01A73
:10018000524103098B4201D30B01C01A5241C308EB
:100190008B4201D3CB00C01A524183088B4201D35A
:1001A0008B00C01A524143088B4201D34B00C01A46
:1001B0005241411A00D20146524110467047FFE7B2
:1001C00001B5002000F006F802BDC0460029F7D0B6
:1001D00076E770477047C04610B5064C2378002B71
:1001E00007D1054B002B02D0044800E000BF0123DB
:1001F000237010BD100000200000000068240008DB
:10020000044B10B5002B03D00349044800E000BFA5
:1002100010BDC04600000000140000206824000843
:1002200080B500AF01F0D8FC00F018F800F0ACF891
:1002300000F05EF800F080F8064B180000F0D2FDE8
:10024000054B180000F0CEFD00F0C8F900F0F0F901
:10025000FCE7C0462C000020E000002090B591B0E3
:1002600000AF10243B19180030231A00002102F0BF
:10027000F3F83B00180010231A00002102F0ECF8FC
:1002800021007B1802221A607B180122DA607B1899
:1002900010221A617B1802221A627B1800225A620D
:1002A0007B18A02292039A627B180022DA627B18E4
:1002B000180001F045F8031E01D000F005F93B00DD
:1002C00007221A603B0002225A603B0000229A601B
:1002D0003B000022DA603B000121180001F04AFBDC
:1002E000031E01D000F0F0F8C046BD4611B090BD2D
:1002F00080B500AF0E4B0F4A1A600D4B2F225A608B
:100300000B4B00229A600A4B6422DA60084B0022F1
:100310001A61074B00229A61054B180000F004FD9A
:10032000031E01D000F0D0F8C046BD4680BDC046D7
:100330002C0000200020004080B500AF0F4B104A79
:100340001A600E4B2F225A600C4B00229A600B4B06
:100350000C4ADA60094B00221A61084B00225A61EC
:10036000064B00229A61054B180000F0DDFC031ECD
:1003700001D000F0A9F8C046BD4680BDE0000020D5
:10038000004401401027000090B589B000AF0C2454
:100390003B19180014231A00002102F05DF8444BA9
:1003A0005A69434B802109030A435A61404B5A69F9
:1003B00080231B031340BB60BB683D4B5A693C4B19
:1003C000802189020A435A61394B5A6980239B0272
:1003D00013407B607B68364B5A69354B8021C902DC
:1003E0000A435A61324B5A698023DB0213403B6057
:1003F0003B683049304B0022180001F0DEFD2F49E8
:100400009023DB050022180001F0D7FD2C492D4B6D
:100410000022180001F0D1FD3B19264A1A603B1951
:1004200001225A603B1900229A603B190022DA60CF
:100430003B19214A1900100001F032FC3B190F2230
:100440001A603B1900225A603B1900229A603B193E
:10045000194A1900100001F023FC3B19174A1A60D1
:100460003B1901225A603B1900229A603B19002275
:10047000DA603A199023DB051100180001F010FC36
:1004800021007B180E4A1A607B1801225A607B18E3
:1004900000229A607B180022DA607B18094A190052
:1004A000100001F0FDFBC046BD4609B090BDC0463E
:1004B00000100240F03F0000000800487C86000069
:1004C000FFFF00000004004880B500AF72B6C046D0
:1004D000FEE7000080B582B000AF78607B681B68E3
:1004E000074A934201D100F011F97B681B68054A65
:1004F000934201D100F090F8C046BD4602B080BDE5
:10050000004401400020004080B582B000AF0F4B96
:100510009A690E4B01210A439A610C4B9B69012297
:1005200013407B607B68094BDA69084B80214905E1
:100530000A43DA61054BDA6980235B0513403B60AF
:100540003B68C046BD4602B080BDC04600100240B8
:1005500080B584B000AF78607B681B681C4A93420A
:1005600016D11C4BDA691B4B802149000A43DA6122
:10057000184BDA6980235B001340FB60FB680022A4
:100580000221132001F0E2FD132001F0F4FD1AE036
:100590007B681B68104A934215D10E4B9A690D4B2C
:1005A000802189020A439A610A4B9A6980239B023F
:1005B0001340BB60BB6800220121152001F0C6FD7D
:1005C000152001F0D8FDC046BD4604B080BDC04630
:1005D00000200040001002400044014080B500AF00
:1005E000C046BD4680BD80B500AFC046BD4680BD9B
:1005F00080B500AF00F08EF900F0DCFAC046BD46D1
:1006000080BD80B500AFC046BD4680BD80B500AF9F
:10061000C046BD4680BD000080B500AF034B1B68DF
:100620005A1C024B1A60C046BD4680BD9401002092
:1006300080B582B000AF144B56229B5C012B14D1C5
:10064000124B7B60104B7A681A660F4B56220021C2
:100650009954032000F0E4F8FFF7D3FF032000F0E3
:1006600009F9032000F08AF80BE0042000F0D8F824
:10067000FFF7CCFF042000F0FDF8042000F07EF826
:10068000C046BD4602B080BD9401002003060008AC
:1006900080B582B000AF1B4B5B685A1C194B5A6087
:1006A000184B542201219954164B5B6864211800A1
:1006B000FFF78CFD0B1E08D1124BDB685A1C114B47
:1006C000DA60104B5622012199540E4B54229B5C48
:1006D000012B13D10C4B7B600A4B7A689A65094B4E
:1006E000542200219954012000F09AF8FFF77BFF73
:1006F000012000F0BFF8012000F040F8C046BD46E0
:1007000002B080BD94010020E705000880B582B0EA
:1007100000AF134B9B685A1C114B9A60104B55222B
:10072000012199540E4B55229B5C012B13D10D4B8B
:100730007B600B4B7A68DA65094B5522002199548E
:10074000022000F06DF8FFF753FF022000F092F84E
:10075000022000F013F8C046BD4602B080BDC0467E
:1007600094010020F105000880B500AF024B1B6822
:100770001800BD4680BDC0469401002080B586B0FB
:1007800000AF0200FB1D1A7000233B6100237B6158
:100790000023FB60FFF7E8FF03003B61FB1D1B78B4
:1007A000032B0DD010DC012B02D0022B04D00BE068
:1007B0001A4B9B6A7B6107E0184BDB6A7B6103E0A5
:1007C000164B1B6B7B61C0463A697B69D31AFB6091
:1007D0003B697B61FB1D1B78032B13D01ADC012BBB
:1007E00002D0022B07D015E00C4BFA681A640B4BB1
:1007F0007A699A620DE0094BFA685A64074B7A6984
:10080000DA6206E0054BFA689A64044B7A691A6367
:10081000C046C046C046BD4606B080BD940100201B
:1008200080B584B000AF0200FB1D1A700023FB608E
:10083000FFF79AFF0300FB60FB1D1B78032B0DD015
:1008400011DC012B02D0022B04D00CE0084BFA681B
:100850001A6107E0064BFA689A6103E0044BFA68F4
:100860001A62C046C046C046BD4604B080BDC04600
:100870009401002080B586B000AF0200FB1D1A7005
:1008800000233B6100237B610023FB60FFF76CFFCB
:1008900003003B61FB1D1B78032B0DD010DC012BEB
:1008A00002D0022B04D00BE0194B1B697B6107E0DF
:1008B000174B9B697B6103E0154B1B6A7B61C0464C
:1008C0003A697B69D31AFB60FB1D1B78032B13D09D
:1008D0001ADC012B02D0022B07D015E00C4BFA6872
:1008E0005A630B4B3A695A610DE0094BFA689A63F7
:1008F000074B3A69DA6106E0054BFA68DA63044BA4
:100900003A695A62C046C046C046BD4606B080BD80
:1009100094010020B0B500AFA04B1B78032B2FD063
:100920003BDC022B1FD038DC002B02D0012B0DD07A
:1009300033E09B4B00221021180001F03EFB984B46
:100940000122E021180001F038FB27E0944B00223F
:100950002021180001F031FB914B0122D021180019
:1009600001F02BFB1AE08E4B00224021180001F011
:1009700024FB8B4B0122B021180001F01EFB0DE07F
:10098000874B00228021180001F017FB844B0122C5
:100990007021180001F011FB00E0C046804B0121DE
:1009A000180001F0EDFA03005CB27D4B0221180043
:1009B00001F0E6FA03005B005BB223435CB2784BC4
:1009C0000421180001F0DCFA03009B005BB2234312
:1009D0005CB2734B0821180001F0D2FA0300DB006F
:1009E0005BB223435BB2DAB26E4B1A706D4B1B786D
:1009F000002B04D06C4B1B685A1C6B4B1A60674B66
:100A00001B78002B24D1674B1B78002B20D0654B23
:100A10001B78072B03D1654B2A221A7090E0614B9B
:100A20001B780B2B03D1614B30221A7088E05D4B91
:100A30001B780D2B03D15D4B44221A7080E0594B7B
:100A40001B780E2B00D07BE0584B23221A7077E0E6
:100A5000524B1B78012B23D1524B1B78002B1FD0FC
:100A6000504B1B78072B03D1504B34221A7069E08E
:100A70004C4B1B780B2B03D14C4B35221A7061E089
:100A8000484B1B780D2B03D1484B36221A7059E086
:100A9000444B1B780E2B55D1444B42221A7051E027
:100AA0003E4B1B78022B23D13E4B1B78002B1FD0D3
:100AB0003C4B1B78072B03D13C4B37221A7043E089
:100AC000384B1B780B2B03D1384B38221A703BE084
:100AD000344B1B780D2B03D1344B39221A7033E081
:100AE000304B1B780E2B2FD1304B43221A702BE04A
:100AF0002A4B1B78032B28D12A4B1B78002B24D0A0
:100B0000284B1B78072B03D1284B31221A701CE08D
:100B1000244B1B780B2B03D1244B32221A7014E088
:100B2000204B1B780D2B03D1204B41221A700CE077
:100B30001C4B1B780E2B08D11C4B33221A7004E07F
:100B4000C04602E0C04600E0C046144B1B780133AB
:100B5000DAB2124B1A70114B1B78032B02D90F4BD0
:100B600000221A700F4B1B780F2B0FD1104B1B68F4
:100B70005A1C0F4B1A600E4B1B68322B0AD90B4BB9
:100B800020221A700A4B00221A6003E0084B002250
:100B90001A60C046C046BD46B0BDC046F90100203F
:100BA00000080048F801002000020020000000209A
:100BB000FC01002080B500AF584B1B8801339AB26E
:100BC000564B1A80554B1B880A2B4ED8802319028E
:100BD0009023DB050022180001F0EFF98023DB00F1
:100BE0004F480022190001F0E8F980231B014C480E
:100BF0000022190001F0E1F98023DB0148480022BE
:100C0000190001F0DAF980231B024548002219007F
:100C100001F0D3F980235B0042480022190001F063
:100C2000CCF980239B003F480022190001F0C5F950
:100C30008023DB003B480022190001F0BEF980232D
:100C40001B0138480022190001F0B7F980235B012D
:100C500034480022190001F0B0F980239B0131488B
:100C60000022190001F0A9F94DE080231902902318
:100C7000DB050122180001F0A0F98023DB002848E1
:100C80000122190001F099F980231B012448012257
:100C9000190001F092F98023DB012148012219009B
:100CA00001F08BF980231B021D480122190001F07D
:100CB00084F980235B001B480122190001F07DF9B3
:100CC00080239B0017480122190001F076F9802348
:100CD000DB0014480122190001F06FF980231B0189
:100CE00010480122190001F068F980235B010D48CA
:100CF0000122190001F061F980239B0109480122BA
:100D0000190001F05AF9054B1B88142B02D9034B2B
:100D100000221A80C046BD4680BDC04604020020A5
:100D2000000400480008004880B582B000AF786039
:100D30007B68002B01D101234EE07B683D229B5C48
:100D4000DBB2002B13D17B683C22002199547B68D5
:100D5000180000F087FA7B689B6C002B02D17B683F
:100D60001F4A9A647B689B6C7A68100098477B687E
:100D70003D22022199547B681A687B68043319006C
:100D8000100000F0F9F97B684622012199547B6834
:100D90003E22012199547B683F22012199547B68AE
:100DA0004022012199547B684122012199547B689A
:100DB0004222012199547B684322012199547B6886
:100DC0004422012199547B684522012199547B6872
:100DD0003D220121995400231800BD4602B080BD78
:100DE0005105000880B584B000AF78607B683D2273
:100DF0009B5CDBB2012B01D0012335E07B683D22F7
:100E0000022199547B681B68DA687B681B680121A2
:100E10000A43DA607B681B68154A934209D07B68F5
:100E20001B68144A934204D07B681B68124A9342A1
:100E300011D17B681B689B6807221340FB60FB682D
:100E4000062B10D07B681B681A687B681B68012121
:100E50000A431A6007E07B681B681A687B681B6896
:100E600001210A431A6000231800BD4604B080BD6A
:100E7000002C0140000400400040014080B582B0D9
:100E800000AF78607B681B681B6902221340022B4D
:100E90002AD17B681B68DB6802221340022B23D116
:100EA0007B681B68032252421A617B6801221A7711
:100EB0007B681B689B690322134006D07B689022E5
:100EC0009B587A68100098470BE07B6898229B58E3
:100ED0007A68100098477B689C229B587A681000BB
:100EE00098477B6800221A777B681B681B6904227D
:100EF0001340042B2BD17B681B68DB680422134052
:100F0000042B24D17B681B68052252421A617B683E
:100F100002221A777B681B689A69C0239B001340E2
:100F200006D07B6890229B587A68100098470BE0A7
:100F30007B6898229B587A68100098477B689C22AF
:100F40009B587A68100098477B6800221A777B6864
:100F50001B681B6908221340082B2AD17B681B6879
:100F6000DB6808221340082B23D17B681B68092209
:100F700052421A617B6804221A777B681B68DB691E
:100F80000322134006D07B6890229B587A68100099
:100F900098470BE07B6898229B587A681000984726
:100FA0007B689C229B587A68100098477B680022D7
:100FB0001A777B681B681B6910221340102B2BD1FA
:100FC0007B681B68DB6810221340102B24D17B68E0
:100FD0001B68112252421A617B6808221A777B68CB
:100FE0001B68DA69C0239B00134006D07B689022FF
:100FF0009B587A68100098470BE07B6898229B58B2
:101000007A68100098477B689C229B587A68100089
:1010100098477B6800221A777B681B681B6901224E
:101020001340012B11D17B681B68DB680122134040
:10103000012B0AD17B681B68022252421A617B682D
:1010400080229B587A68100098477B681B681B6950
:1010500080221340802B11D17B681B68DB688022C3
:101060001340802B0AD17B681B68812252421A618F
:101070007B68B0229B587A68100098477B681B6891
:101080001B6940221340402B11D17B681B68DB6831
:1010900040221340402B0AD17B681B6841225242F8
:1010A0001A617B6888229B587A68100098477B6891
:1010B0001B681B6920221340202B11D17B681B6801
:1010C000DB6820221340202B0AD17B681B68212279
:1010D00052421A617B68A8229B587A681000984790
:1010E000C046BD4602B080BD80B582B000AF78601A
:1010F000C046BD4602B080BD80B582B000AF78600A
:10110000C046BD4602B080BD80B582B000AF7860F9
:10111000C046BD4602B080BD80B582B000AF7860E9
:10112000C046BD4602B080BD80B582B000AF7860D9
:10113000C046BD4602B080BD80B582B000AF7860C9
:10114000C046BD4602B080BD80B582B000AF7860B9
:10115000C046BD4602B080BD80B582B000AF7860A9
:10116000C046BD4602B080BD80B582B000AF786099
:10117000C046BD4602B080BD80B584B000AF786087
:1011800039607B681B68FB607B682F4A934203D001
:101190007B682E4A934208D1FB6870229343FB6020
:1011A0003B685B68FA681343FB607B68264A93429E
:1011B00013D07B68254A93420FD07B68244A934220
:1011C0000BD07B68234A934207D07B68224A934224
:1011D00003D07B68214A934208D1FB68204A134020
:1011E000FB603B68DB68FA681343FB60FB688022A6
:1011F00093431A003B685B691343FB607B68FA68A2
:101200001A603B689A687B68DA623B681A687B6898
:101210009A627B680C4A93420BD07B680D4A9342DA
:1012200007D07B680C4A934203D07B680B4A9342F9
:1012300003D13B681A697B681A637B6801225A6193
:10124000C046BD4604B080BD002C014000040040F3
:10125000002000400040014000440140004801409F
:10126000FFFCFFFF80B582B000AF78607B68802113
:101270001A4A5A507B688421194A5A507B6888213F
:10128000184A5A507B688C21174A5A507B68902123
:10129000164A5A507B689421154A5A507B68982107
:1012A000144A5A507B689C21134A5A507B68A021EB
:1012B000124A5A507B68A421114A5A507B68A821CF
:1012C000104A5A507B68AC210F4A5A507B68B021B3
:1012D0000E4A5A50C046BD4602B080BDD504000833
:1012E000E910000849110008591100080911000807
:1012F00019110008F9100008291100083911000817
:1013000069110008111300082113000831130008A7
:1013100080B582B000AF7860C046BD4602B080BDE7
:1013200080B582B000AF7860C046BD4602B080BDD7
:1013300080B582B000AF7860C046BD4602B080BDC7
:1013400080B588B000AF78607B68002B01D10123A5
:1013500001E37B681B680122134000D18DE0C34B81
:101360005B680C221340042B0ED0C04B5B680C2230
:101370001340082B16D1BD4B5A6880235B021A40DC
:1013800080235B029A420DD1B84B1A6880239B02DE
:10139000134000D170E07B685B68002B00D06BE0ED
:1013A0000123D8E27B685B68012B07D1AF4B1A6839
:1013B000AE4B802149020A431A602FE07B685B68CC
:1013C000002B0CD1A94B1A68A84BA9490A401A60F6
:1013D000A64B1A68A54BA7490A401A601EE07B6815
:1013E0005B68052B0ED1A14B1A68A04B8021C90266
:1013F0000A431A609D4B1A689C4B802149020A439C
:101400001A600BE0994B1A68984B99490A401A6088
:10141000964B1A68954B97490A401A607B685B683F
:10142000002B14D000F032FC0300BB6108E000F098
:101430002DFC0200BB69D31A642B01D903238AE275
:101440008A4B1A6880239B021340F0D015E000F00D
:101450001DFC0300BB6108E000F018FC0200BB6942
:10146000D31A642B01D9032375E2804B1A688023B9
:101470009B021340F0D100E0C0467B681B6802224B
:10148000134000D169E0794B5B680C2213400BD00C
:10149000764B5B680C221340082B1CD1734B5A68A7
:1014A00080235B02134016D1704B1B68022213404D
:1014B00005D07B68DB68012B01D001234BE26B4B2D
:1014C0001B68F822934319007B681B69DA00674B9D
:1014D0000A431A6041E07B68DB68002B24D0634B31
:1014E0001A68624B01210A431A6000F0CFFB030027
:1014F000BB6108E000F0CAFB0200BB69D31A022BF3
:1015000001D9032327E2594B1B6802221340F1D073
:10151000564B1B68F822934319007B681B69DA005D
:10152000524B0A431A6018E0504B1A684F4B012186
:101530008A431A6000F0AAFB0300BB6108E000F0D8
:10154000A5FB0200BB69D31A022B01D9032302E2D7
:10155000464B1B6802221340F1D17B681B680822AE
:10156000134036D07B68DB69002B19D03F4B5A6A99
:101570003E4B01210A435A6200F088FB0300BB6125
:1015800008E000F083FB0200BB69D31A022B01D9EB
:101590000323E0E1354B5B6A02221340F1D018E0EF
:1015A000324B5A6A314B01218A435A6200F06EFB7A
:1015B0000300BB6108E000F069FB0200BB69D31ABD
:1015C000022B01D90323C6E1284B5B6A0222134098
:1015D000F1D17B681B680422134000D1B4E01F20C6
:1015E0003B1800221A70214BDA6980235B051340F7
:1015F00010D11E4BDA691D4B802149050A43DA617F
:101600001A4BDA6980235B051340FB60FB683B18CB
:1016100001221A70184B1A6880235B0013401AD1FC
:10162000154B1A68144B802149000A431A6000F0D8
:101630002DFB0300BB6108E000F028FB0200BB6942
:10164000D31A642B01D9032385E10B4B1A6880233D
:101650005B001340F0D07B689B68012B0ED1034BDD
:101660001A6A024B01210A431A6235E00010024057
:10167000FFFFFEFFFFFFFBFF007000407B689B68E1
:10168000002B0CD1B64B1A6AB54B01218A431A6262
:10169000B34B1A6AB24B04218A431A621CE07B687E
:1016A0009B68052B0CD1AE4B1A6AAD4B04210A4343
:1016B0001A62AB4B1A6AAA4B01210A431A620BE069
:1016C000A74B1A6AA64B01218A431A62A44B1A6AD5
:1016D000A34B04218A431A627B689B68002B14D0B9
:1016E00000F0D4FA0300BB6109E000F0CFFA020079
:1016F000BB69D31A9B4A934201D903232BE1984B30
:101700001B6A02221340F0D013E000F0BFFA03007E
:10171000BB6109E000F0BAFA0200BB69D31A914A32
:10172000934201D9032316E18D4B1B6A0222134019
:10173000F0D11F23FB181B78012B05D1884BDA69E8
:10174000874B89490A40DA617B681B681022134085
:1017500063D07B685B69012B2AD1814B5A6B804B2C
:1017600004210A435A637E4B5A6B7D4B01210A4385
:101770005A6300F08BFA0300BB6108E000F086FAC0
:101780000200BB69D31A022B01D90323E3E0744B97
:101790005B6B02221340F1D0714B5B6BF8229343D9
:1017A00019007B689B69DA006D4B0A435A6334E089
:1017B0007B685B69053311D1694B5A6B684B042117
:1017C0008A435A63664B5B6BF822934319007B682C
:1017D0009B69DA00624B0A435A631EE0604B5A6B06
:1017E0005F4B04210A435A635D4B5A6B5C4B0121EA
:1017F0008A435A6300F04AFA0300BB6108E000F034
:1018000045FA0200BB69D31A022B01D90323A2E0D7
:10181000534B5B6B02221340F1D17B681B6A002B98
:1018200000D197E04E4B5B680C221340082B00D18F
:101830006BE07B681B6A022B4CD1494B1A68484B02
:101840004A490A401A6000F021FA0300BB6108E02F
:1018500000F01CFA0200BB69D31A022B01D9032342
:1018600079E03F4B1A6880239B041340F0D13C4B36
:10187000DB6A0F22934319007B68DA6A384B0A430C
:10188000DA62374B5B683A4A134019007B689A6A00
:101890007B685B6A1A43324B0A435A60304B1A68C2
:1018A0002F4B802149040A431A6000F0EFF903002E
:1018B000BB6108E000F0EAF90200BB69D31A022B11
:1018C00001D9032347E0264B1A6880239B04134069
:1018D000F0D03FE0224B1A68214B24490A401A609D
:1018E00000F0D4F90300BB6108E000F0CFF902007A
:1018F000BB69D31A022B01D903232CE0184B1A68B9
:1019000080239B041340F0D124E07B681B6A012BE9
:1019100001D101231FE0124B5B687B61104BDB6A36
:101920003B617A6980235B021A407B685B6A9A425A
:101930000ED13B690F221A407B68DB6A9A4207D1BD
:101940007A69F0239B031A407B689B6A9A4201D014
:10195000012300E000231800BD4608B080BDC0464A
:101960000010024088130000FFFFFFEFFFFFFFFEA3
:10197000FFFFC2FF80B584B000AF786039607B683C
:10198000002B01D10123B3E05B4B1B680122134004
:101990003A689A4211D9584B1B68012293431900A7
:1019A000554B3A680A431A60534B1B680122134097
:1019B0003A689A4201D001239AE07B681B680222B0
:1019C000134015D07B681B680422134006D04B4B94
:1019D0005A684A4BE021C9000A435A60474B5B688A
:1019E000F022934319007B689A68444B0A435A607B
:1019F0007B681B680122134040D07B685B68012B29
:101A000007D13E4B1A6880239B02134014D1012357
:101A10006EE07B685B68022B07D1384B1A68802325
:101A20009B04134008D1012362E0344B1B6802225F
:101A3000134001D101235BE0304B5B6803229343E9
:101A400019007B685A682D4B0A435A6000F01EF952
:101A50000300FB6009E000F019F90200FB68D31AEB
:101A6000274A934201D9032342E0244B5B680C22AE
:101A70001A407B685B689B009A42ECD11E4B1B6846
:101A8000012213403A689A4211D21B4B1B68012273
:101A900093431900184B3A680A431A60164B1B68A7
:101AA000012213403A689A4201D0012320E07B686A
:101AB0001B680422134009D0104B5B68114A134085
:101AC00019007B68DA680D4B0A435A6000F020F871
:101AD00001000A4B5B681B090F2213400A4AD35CC2
:101AE0000A00DA40094B1A60032000F089F800234D
:101AF0001800BD4604B080BD002002400010024026
:101B000088130000FFF8FFFFA02400080C0000204D
:101B100090B58FB000AF1423FB182B4A13CA13C320
:101B200012681A603B1D294A13CA13C312681A604F
:101B30000023FB620023BB6200237B6300237B62E4
:101B400000233B63224B5B68FB62FB6A0C22134061
:101B5000042B02D0082B03D02DE01E4B3B632DE05D
:101B6000FB6A9B0C0F2213401422BA18D35C7B62D1
:101B7000174BDB6A0F2213403A1DD35CBB62FA6A33
:101B800080235B02134009D0B96A1248FEF798FA25
:101B900003001A007B6A53437B6309E0796A0A00F9
:101BA0005201521A93019B1ADB005B181B027B63E4
:101BB0007B6B3B6302E0074B3B63C0463B6B18000B
:101BC000BD460FB090BDC046802400089024000898
:101BD0000010024000127A0080B500AF074B1A686F
:101BE000064B10210A431A60032000F009F8FEF7A3
:101BF0008BFC00231800BD4680BDC046002002407B
:101C000090B583B000AF7860144B1C68144B1B7800
:101C10001900FA239800FEF753FA03001900200078
:101C2000FEF74EFA0300180000F0B5FA031E01D0CB
:101C300001230FE07B68032B0BD8796801235B42FB
:101C40000022180000F082FA064B7A681A6000231E
:101C500000E001231800BD4603B090BD0C00002039
:101C6000080000200400002080B500AF054B1B7861
:101C70001A00054B1B68D218034B1A60C046BD46BC
:101C800080BDC046080000200802002080B500AFDB
:101C9000024B1B681800BD4680BDC04608020020EC
:101CA00080B586B000AF7860396000237B614FE17A
:101CB0003B681B6801217A6991400A001340FB6070
:101CC000FB68002B00D140E13B685B6803221340B6
:101CD000012B05D03B685B6803221340022B30D1F7
:101CE0007B689B683B617B695B0003229A40130021
:101CF000DA433B6913403B613B68DA687B695B0010
:101D00009A4013003A6913433B617B683A699A60D1
:101D10007B685B683B6101227B699A401300DA4370
:101D20003B6913403B613B685B681B0901221A4019
:101D30007B699A4013003A6913433B617B683A69B7
:101D40005A603B685B6803221340032B17D07B6803
:101D5000DB683B617B695B0003229A401300DA4336
:101D60003B6913403B613B689A687B695B009A4022
:101D700013003A6913433B617B683A69DA603B6858
:101D80005B6803221340022B23D17B69DA087B684E
:101D900008329200D3583B617B69072213409B00B5
:101DA0000F229A401300DA433B6913403B613B68C2
:101DB0001A697B6907210B409B009A4013003A691E
:101DC00013433B617B69DA087B680832920039690A
:101DD000D1507B681B683B617B695B0003229A40A2
:101DE0001300DA433B6913403B613B685B680322A5
:101DF0001A407B695B009A4013003A6913433B61C8
:101E00007B683A691A603B685A68C0239B0213409A
:101E100000D19AE0544B9A69534B01210A439A61CD
:101E2000514B9B6901221340BB60BB684F4A7B69E1
:101E30009B0802339B009B583B617B690322134044
:101E40009B000F229A401300DA433B6913403B6129
:101E50007A689023DB059A4213D07B68444A934208
:101E60000DD07B68434A934207D07B68424A934235
:101E700001D1032306E0052304E0022302E001234D
:101E800000E000237A6903210A40920093403A69F6
:101E900013433B6135497B699B0802339B003A69D8
:101EA0005A50364B1B683B61FB68DA433B69134071
:101EB0003B613B685A6880235B02134003D03A6958
:101EC000FB6813433B612D4B3A691A602B4B5B68EF
:101ED0003B61FB68DA433B6913403B613B685A68EE
:101EE00080239B02134003D03A69FB6813433B6194
:101EF000224B3A695A60214B9B683B61FB68DA438D
:101F00003B6913403B613B685A6880235B03134085
:101F100003D03A69FB6813433B61184B3A699A60F6
:101F2000164BDB683B61FB68DA433B6913403B615E
:101F30003B685A6880239B03134003D03A69FB68CF
:101F400013433B610D4B3A69DA607B6901337B6176
:101F50003B681A687B69DA40131E00D0A8E6C046C9
:101F6000C046BD4606B080BD0010024000000140E2
:101F70000004004800080048000C0048000401402C
:101F800080B584B000AF78600A00BB1C1A807B6803
:101F90001B69BA1C1288134004D00F23FB180122BE
:101FA0001A7003E00F23FB1800221A700F23FB188E
:101FB0001B781800BD4604B080BD80B582B000AF6C
:101FC000786008001100BB1C021C1A807B1C0A1CD4
:101FD0001A707B1C1B78002B04D0BB1C1A887B68F2
:101FE0009A6103E0BB1C1A887B689A62C046BD46B2
:101FF00002B080BD80B582B000AF0200FB1D1A7038
:10200000FB1D1B787F2B09D8FB1D1B781A001F2393
:102010001A40044B012191400A001A60C046BD4697
:1020200002B080BD00E100E090B583B000AF0200D7
:102030003960FB1D1A70FB1D1B787F2B28D82F4A97
:10204000FB1D1B785BB29B08C0339B009B58FA1D9D
:102050001278110003220A40D200FF2191400A00A9
:10206000D2431A4011003B689B01FF221A40FB1D1E
:102070001B78180003230340DB009A401F48FB1D18
:102080001B785BB29B080A43C0339B001A5031E0B7
:102090001B4AFB1D1B7819000F230B40083B9B08B4
:1020A00006339B00D31804331B68FA1D1278110005
:1020B00003220A40D200FF2191400A00D2431A4075
:1020C00011003B689B01FF221A40FB1D1B78180082
:1020D00003230340DB009A400948FB1D1B781C00CA
:1020E0000F232340083B9B080A4306339B00C31879
:1020F00004331A60C046BD4603B090BD00E100E065
:1021000000ED00E080B582B000AF78607B685A1EB9
:1021100080235B049A4201D3012310E00A4B7A68C2
:10212000013A5A6001235B4203211800FFF77CFF4C
:10213000054B00229A60044B07221A600023180006
:10214000BD4602B080BDC04610E000E080B584B05E
:1021500000AFB9607A600F217B18021C1A70BA6850
:102160007B181B785BB211001800FFF75DFFC046BB
:10217000BD4604B080BD80B582B000AF0200FB1D3B
:102180001A70FB1D1B785BB21800FFF733FFC046C7
:10219000BD4602B080BD80B582B000AF78607B687C
:1021A0001800FFF7AFFF03001800BD4602B080BD66
:1021B00080B500AFC046BD4680BD000080B584B08C
:1021C00000AF124BFB60124BBB6007E0FA68131DB7
:1021D000FB60BB68191DB96012681A60BA680D4BC4
:1021E0009A42F3D30C4B7B6004E07B681A1D7A6043
:1021F00000221A607A68094B9A42F6D3FFF7D8FF9B
:1022000000F006F9FEF70CF8FEE7C046B824000817
:102210000000002010000020100000200C02002010
:1022200080B500AFFEE7000080B500AF034B18009B
:10223000FEF724FEC046BD4680BDC0462C000020EF
:1022400080B500AF034B1800FEF718FEC046BD4630
:1022500080BDC046E000002080B500AFFFF704FD60
:10226000FEF716FAC046BD4680BD80B500AFFFF749
:10227000D7FFC046BD4680BD80B500AFFFF7D0FF99
:10228000C046BD4680BD80B500AFFFF7C9FFC04660
:10229000BD4680BD80B500AFFFF7C2FFC046BD465A
:1022A00080BD80B500AFFFF7D7FFC046BD4680BDFB
:1022B00080B500AFFFF7B4FFC046BD4680BD80B516
:1022C00000AFFFF7ADFFC046BD4680BD80B500AF93
:1022D000FFF7A6FFC046BD4680BD80B500AFFFF743
:1022E0009FFFC046BD4680BD80B500AFFFF798FF99
:1022F000C046BD4680BD80B500AFFFF791FFC04628
:10230000BD4680BD80B500AFFFF78AFFC046BD4621
:1023100080BD80B500AFFFF783FFC046BD4680BDDE
:1023200080B500AFFFF77CFFC046BD4680BD80B5DD
:1023300000AFFFF775FFC046BD4680BD80B500AF5A
:10234000FFF76EFFC046BD4680BD80B500AFFFF70A
:1023500067FFC046BD4680BD80B500AFFFF760FF98
:10236000C046BD4680BD80B500AFFFF759FFC046EF
:10237000BD4680BD80B500AFFFF752FFC046BD46E9
:1023800080BD80B500AFFFF74FFFC046BD4680BDA2
:1023900080B500AFFFF744FFC046BD4680BD80B5A5
:1023A00000AFFFF74DFFC046BD4680BD80B500AF12
:1023B000FFF736FFC046BD4680BD80B500AFFFF7D2
:1023C0002FFFC046BD4680BD80B500AFFFF728FF98
:1023D000C046BD4680BD80B500AFFFF721FFC046B7
:1023E000BD4680BD80B500AFFFF71AFFC046BD46B1
:1023F00080BD80B500AFFFF713FFC046BD4680BD6E
:1024000080B500AFFFF70CFFC046BD4680BD0000A1
:1024100070B500260C4D0D4C641BA410A64209D1CA
:10242000002600F021F80A4D0A4C641BA410A642B5
:1024300005D170BDB300EB5898470136EEE7B30005
:10244000EB5898470136F2E7B0240008B0240008A2
:10245000B0240008B424000803008218934200D17D
:10246000704719700133F9E7F8B5C046F8BC08BCED
:102470009E467047F8B5C046F8BC08BC9E467047FB
:1024800002030405060708090A0B0C0D0E0F1010B5
:102490000102030405060708090A0B0C0D0E0F10B4
:1024A0000000000000000000010203040607080904
:0424B000010200081D
:0424B400D901000842
:1024B80020000000040000000100000000127A0063
:04000005080021BD11
:00000001FF
